{
  "fileName": "deployContract.sol",
  "contractName": "DeployContract",
  "source": "pragma solidity 0.5.16;\n\nimport \"./etherlessStorage.sol\";\n\ncontract DeployContract is Initializable, Ownable {\n\n    EtherlessStorageInterface private etherlessStorage;\n\n    event uploadToken(string token, bytes32 operationHash);\n    event requestUpload(bytes32 operationHash);\n    event deployFailure(bytes32 operationHash);\n    event deploySuccess(bytes32 operationHash);\n\n    function initialize(address _sender) public initializer {\n        Ownable.initialize(_sender);\n    }\n\n    function setStorage(address _storage) public onlyOwner {\n      etherlessStorage = EtherlessStorageInterface(_storage);\n    }\n\n    function getDeployFee() public view returns (uint) {\n      return etherlessStorage.getDeployFee();\n    }\n\n    function deploy(string calldata _token, string calldata _funcName) payable external returns (bytes32) {\n        require(msg.value == etherlessStorage.getDeployFee(), \"Error: the value (ETH) you sent is inappropriate to deploy\");\n        require(etherlessStorage.hasFuncPermission(_funcName, msg.sender), \"you dont have permission to deploy or overwrite this function\");\n\n        etherlessStorage.addFuncOwnership(_funcName, msg.sender);\n\n        bytes32 operationHash = etherlessStorage.getOperationHash(uint16(msg.sender), \"deploy\", _funcName);\n        etherlessStorage.setUserOperation.value(msg.value)(msg.sender, operationHash);\n        emit uploadToken(_token, operationHash);\n        return operationHash;\n    }\n    \n    function sendRequestUpload(bytes32 _operationHash) external onlyOwner {\n        emit requestUpload(_operationHash);\n    }\n    \n    function terminateDeploy(string calldata _funcName, address devAddress, uint funcPrice, bytes32 _operationHash) external onlyOwner {\n      etherlessStorage.addFunc(_funcName, \"available\", devAddress, funcPrice);\n      etherlessStorage.closeOperation(_operationHash);\n      emit deploySuccess(_operationHash);\n    }\n\n    function refundDeploy(string calldata _funcName, bytes32 _operationHash) external onlyOwner {\n      etherlessStorage.removeFuncOwnership(_funcName);\n      etherlessStorage.cancelOperation(_operationHash);\n      emit deployFailure(_operationHash);\n    }\n    \n}",
  "sourcePath": "contracts/deployContract.sol",
  "abi": [
    {
      "anonymous": false,
      "inputs": [
        {
          "indexed": true,
          "internalType": "address",
          "name": "previousOwner",
          "type": "address"
        },
        {
          "indexed": true,
          "internalType": "address",
          "name": "newOwner",
          "type": "address"
        }
      ],
      "name": "OwnershipTransferred",
      "type": "event"
    },
    {
      "anonymous": false,
      "inputs": [
        {
          "indexed": false,
          "internalType": "bytes32",
          "name": "operationHash",
          "type": "bytes32"
        }
      ],
      "name": "deployFailure",
      "type": "event"
    },
    {
      "anonymous": false,
      "inputs": [
        {
          "indexed": false,
          "internalType": "bytes32",
          "name": "operationHash",
          "type": "bytes32"
        }
      ],
      "name": "deploySuccess",
      "type": "event"
    },
    {
      "anonymous": false,
      "inputs": [
        {
          "indexed": false,
          "internalType": "bytes32",
          "name": "operationHash",
          "type": "bytes32"
        }
      ],
      "name": "requestUpload",
      "type": "event"
    },
    {
      "anonymous": false,
      "inputs": [
        {
          "indexed": false,
          "internalType": "string",
          "name": "token",
          "type": "string"
        },
        {
          "indexed": false,
          "internalType": "bytes32",
          "name": "operationHash",
          "type": "bytes32"
        }
      ],
      "name": "uploadToken",
      "type": "event"
    },
    {
      "constant": false,
      "inputs": [
        {
          "internalType": "string",
          "name": "_token",
          "type": "string"
        },
        {
          "internalType": "string",
          "name": "_funcName",
          "type": "string"
        }
      ],
      "name": "deploy",
      "outputs": [
        {
          "internalType": "bytes32",
          "name": "",
          "type": "bytes32"
        }
      ],
      "payable": true,
      "stateMutability": "payable",
      "type": "function"
    },
    {
      "constant": true,
      "inputs": [],
      "name": "getDeployFee",
      "outputs": [
        {
          "internalType": "uint256",
          "name": "",
          "type": "uint256"
        }
      ],
      "payable": false,
      "stateMutability": "view",
      "type": "function"
    },
    {
      "constant": false,
      "inputs": [
        {
          "internalType": "address",
          "name": "_sender",
          "type": "address"
        }
      ],
      "name": "initialize",
      "outputs": [],
      "payable": false,
      "stateMutability": "nonpayable",
      "type": "function"
    },
    {
      "constant": true,
      "inputs": [],
      "name": "isOwner",
      "outputs": [
        {
          "internalType": "bool",
          "name": "",
          "type": "bool"
        }
      ],
      "payable": false,
      "stateMutability": "view",
      "type": "function"
    },
    {
      "constant": true,
      "inputs": [],
      "name": "owner",
      "outputs": [
        {
          "internalType": "address",
          "name": "",
          "type": "address"
        }
      ],
      "payable": false,
      "stateMutability": "view",
      "type": "function"
    },
    {
      "constant": false,
      "inputs": [
        {
          "internalType": "string",
          "name": "_funcName",
          "type": "string"
        },
        {
          "internalType": "bytes32",
          "name": "_operationHash",
          "type": "bytes32"
        }
      ],
      "name": "refundDeploy",
      "outputs": [],
      "payable": false,
      "stateMutability": "nonpayable",
      "type": "function"
    },
    {
      "constant": false,
      "inputs": [],
      "name": "renounceOwnership",
      "outputs": [],
      "payable": false,
      "stateMutability": "nonpayable",
      "type": "function"
    },
    {
      "constant": false,
      "inputs": [
        {
          "internalType": "bytes32",
          "name": "_operationHash",
          "type": "bytes32"
        }
      ],
      "name": "sendRequestUpload",
      "outputs": [],
      "payable": false,
      "stateMutability": "nonpayable",
      "type": "function"
    },
    {
      "constant": false,
      "inputs": [
        {
          "internalType": "address",
          "name": "_storage",
          "type": "address"
        }
      ],
      "name": "setStorage",
      "outputs": [],
      "payable": false,
      "stateMutability": "nonpayable",
      "type": "function"
    },
    {
      "constant": false,
      "inputs": [
        {
          "internalType": "string",
          "name": "_funcName",
          "type": "string"
        },
        {
          "internalType": "address",
          "name": "devAddress",
          "type": "address"
        },
        {
          "internalType": "uint256",
          "name": "funcPrice",
          "type": "uint256"
        },
        {
          "internalType": "bytes32",
          "name": "_operationHash",
          "type": "bytes32"
        }
      ],
      "name": "terminateDeploy",
      "outputs": [],
      "payable": false,
      "stateMutability": "nonpayable",
      "type": "function"
    },
    {
      "constant": false,
      "inputs": [
        {
          "internalType": "address",
          "name": "newOwner",
          "type": "address"
        }
      ],
      "name": "transferOwnership",
      "outputs": [],
      "payable": false,
      "stateMutability": "nonpayable",
      "type": "function"
    }
  ],
  "bytecode": "0x6080604052611870806100136000396000f3fe60806040526004361061009c5760003560e01c80639137c1a7116100645780639137c1a714610288578063b5488487146102d9578063bc79a12c146103bb578063c4d66de8146103e6578063f2fde38b14610437578063f32601c6146104885761009c565b806311f00bc5146100a1578063715018a6146101315780638a5fa09d146101485780638da5cb5b146102025780638f32d59b14610259575b600080fd5b3480156100ad57600080fd5b5061012f600480360360408110156100c457600080fd5b81019080803590602001906401000000008111156100e157600080fd5b8201836020820111156100f357600080fd5b8035906020019184600183028401116401000000008311171561011557600080fd5b9091929391929390803590602001909291905050506104c3565b005b34801561013d57600080fd5b506101466106bf565b005b34801561015457600080fd5b506102006004803603608081101561016b57600080fd5b810190808035906020019064010000000081111561018857600080fd5b82018360208201111561019a57600080fd5b803590602001918460018302840111640100000000831117156101bc57600080fd5b9091929391929390803573ffffffffffffffffffffffffffffffffffffffff16906020019092919080359060200190929190803590602001909291905050506107fa565b005b34801561020e57600080fd5b50610217610a6d565b604051808273ffffffffffffffffffffffffffffffffffffffff1673ffffffffffffffffffffffffffffffffffffffff16815260200191505060405180910390f35b34801561026557600080fd5b5061026e610a97565b604051808215151515815260200191505060405180910390f35b34801561029457600080fd5b506102d7600480360360208110156102ab57600080fd5b81019080803573ffffffffffffffffffffffffffffffffffffffff169060200190929190505050610af6565b005b6103a5600480360360408110156102ef57600080fd5b810190808035906020019064010000000081111561030c57600080fd5b82018360208201111561031e57600080fd5b8035906020019184600183028401116401000000008311171561034057600080fd5b90919293919293908035906020019064010000000081111561036157600080fd5b82018360208201111561037357600080fd5b8035906020019184600183028401116401000000008311171561039557600080fd5b9091929391929390505050610bb4565b6040518082815260200191505060405180910390f35b3480156103c757600080fd5b506103d0611160565b6040518082815260200191505060405180910390f35b3480156103f257600080fd5b506104356004803603602081101561040957600080fd5b81019080803573ffffffffffffffffffffffffffffffffffffffff16906020019092919050505061120a565b005b34801561044357600080fd5b506104866004803603602081101561045a57600080fd5b81019080803573ffffffffffffffffffffffffffffffffffffffff169060200190929190505050611313565b005b34801561049457600080fd5b506104c1600480360360208110156104ab57600080fd5b8101908080359060200190929190505050611399565b005b6104cb610a97565b61053d576040517f08c379a00000000000000000000000000000000000000000000000000000000081526004018080602001828103825260208152602001807f4f776e61626c653a2063616c6c6572206973206e6f7420746865206f776e657281525060200191505060405180910390fd5b606660009054906101000a900473ffffffffffffffffffffffffffffffffffffffff1673ffffffffffffffffffffffffffffffffffffffff16638132be2684846040518363ffffffff1660e01b815260040180806020018281038252848482818152602001925080828437600081840152601f19601f8201169050808301925050509350505050600060405180830381600087803b1580156105de57600080fd5b505af11580156105f2573d6000803e3d6000fd5b50505050606660009054906101000a900473ffffffffffffffffffffffffffffffffffffffff1673ffffffffffffffffffffffffffffffffffffffff1663beadf957826040518263ffffffff1660e01b815260040180828152602001915050600060405180830381600087803b15801561066b57600080fd5b505af115801561067f573d6000803e3d6000fd5b505050507fab13c1d5c240036a5dcf7ec575b082f3c72980c882d07f14b9da40b4d14d9165816040518082815260200191505060405180910390a1505050565b6106c7610a97565b610739576040517f08c379a00000000000000000000000000000000000000000000000000000000081526004018080602001828103825260208152602001807f4f776e61626c653a2063616c6c6572206973206e6f7420746865206f776e657281525060200191505060405180910390fd5b600073ffffffffffffffffffffffffffffffffffffffff16603360009054906101000a900473ffffffffffffffffffffffffffffffffffffffff1673ffffffffffffffffffffffffffffffffffffffff167f8be0079c531659141344cd1fd0a4f28419497f9722a3daafe3b4186f6b6457e060405160405180910390a36000603360006101000a81548173ffffffffffffffffffffffffffffffffffffffff021916908373ffffffffffffffffffffffffffffffffffffffff160217905550565b610802610a97565b610874576040517f08c379a00000000000000000000000000000000000000000000000000000000081526004018080602001828103825260208152602001807f4f776e61626c653a2063616c6c6572206973206e6f7420746865206f776e657281525060200191505060405180910390fd5b606660009054906101000a900473ffffffffffffffffffffffffffffffffffffffff1673ffffffffffffffffffffffffffffffffffffffff166341922707868686866040518563ffffffff1660e01b81526004018080602001806020018573ffffffffffffffffffffffffffffffffffffffff1673ffffffffffffffffffffffffffffffffffffffff1681526020018481526020018381038352878782818152602001925080828437600081840152601f19601f820116905080830192505050838103825260098152602001807f617661696c61626c6500000000000000000000000000000000000000000000008152506020019650505050505050600060405180830381600087803b15801561098a57600080fd5b505af115801561099e573d6000803e3d6000fd5b50505050606660009054906101000a900473ffffffffffffffffffffffffffffffffffffffff1673ffffffffffffffffffffffffffffffffffffffff1663c44b0a76826040518263ffffffff1660e01b815260040180828152602001915050600060405180830381600087803b158015610a1757600080fd5b505af1158015610a2b573d6000803e3d6000fd5b505050507f9c65335cd06c8bc5b567beb3b0cd3c1282e22d5de5add718d4e2b772567f1f75816040518082815260200191505060405180910390a15050505050565b6000603360009054906101000a900473ffffffffffffffffffffffffffffffffffffffff16905090565b6000603360009054906101000a900473ffffffffffffffffffffffffffffffffffffffff1673ffffffffffffffffffffffffffffffffffffffff16610ada61144d565b73ffffffffffffffffffffffffffffffffffffffff1614905090565b610afe610a97565b610b70576040517f08c379a00000000000000000000000000000000000000000000000000000000081526004018080602001828103825260208152602001807f4f776e61626c653a2063616c6c6572206973206e6f7420746865206f776e657281525060200191505060405180910390fd5b80606660006101000a81548173ffffffffffffffffffffffffffffffffffffffff021916908373ffffffffffffffffffffffffffffffffffffffff16021790555050565b6000606660009054906101000a900473ffffffffffffffffffffffffffffffffffffffff1673ffffffffffffffffffffffffffffffffffffffff1663bc79a12c6040518163ffffffff1660e01b815260040160206040518083038186803b158015610c1e57600080fd5b505afa158015610c32573d6000803e3d6000fd5b505050506040513d6020811015610c4857600080fd5b81019080805190602001909291905050503414610cb0576040517f08c379a000000000000000000000000000000000000000000000000000000000815260040180806020018281038252603a8152602001806117d4603a913960400191505060405180910390fd5b606660009054906101000a900473ffffffffffffffffffffffffffffffffffffffff1673ffffffffffffffffffffffffffffffffffffffff16634dea943c8484336040518463ffffffff1660e01b815260040180806020018373ffffffffffffffffffffffffffffffffffffffff1673ffffffffffffffffffffffffffffffffffffffff1681526020018281038252858582818152602001925080828437600081840152601f19601f82011690508083019250505094505050505060206040518083038186803b158015610d8357600080fd5b505afa158015610d97573d6000803e3d6000fd5b505050506040513d6020811015610dad57600080fd5b8101908080519060200190929190505050610e13576040517f08c379a000000000000000000000000000000000000000000000000000000000815260040180806020018281038252603d815260200180611797603d913960400191505060405180910390fd5b606660009054906101000a900473ffffffffffffffffffffffffffffffffffffffff1673ffffffffffffffffffffffffffffffffffffffff1663c832e2e58484336040518463ffffffff1660e01b815260040180806020018373ffffffffffffffffffffffffffffffffffffffff1673ffffffffffffffffffffffffffffffffffffffff1681526020018281038252858582818152602001925080828437600081840152601f19601f820116905080830192505050945050505050600060405180830381600087803b158015610ee857600080fd5b505af1158015610efc573d6000803e3d6000fd5b505050506000606660009054906101000a900473ffffffffffffffffffffffffffffffffffffffff1673ffffffffffffffffffffffffffffffffffffffff16639fde5cfc3386866040518463ffffffff1660e01b8152600401808461ffff1661ffff1681526020018060200180602001838103835260068152602001807f6465706c6f7900000000000000000000000000000000000000000000000000008152506020018381038252858582818152602001925080828437600081840152601f19601f8201169050808301925050509550505050505060206040518083038186803b158015610fea57600080fd5b505afa158015610ffe573d6000803e3d6000fd5b505050506040513d602081101561101457600080fd5b81019080805190602001909291905050509050606660009054906101000a900473ffffffffffffffffffffffffffffffffffffffff1673ffffffffffffffffffffffffffffffffffffffff1663c3742a803433846040518463ffffffff1660e01b8152600401808373ffffffffffffffffffffffffffffffffffffffff1673ffffffffffffffffffffffffffffffffffffffff168152602001828152602001925050506000604051808303818588803b1580156110d057600080fd5b505af11580156110e4573d6000803e3d6000fd5b50505050507fe0b4144184419958086a30a8949a3718e6a8070664cff684dbdef8392c9f297d86868360405180806020018381526020018281038252858582818152602001925080828437600081840152601f19601f82011690508083019250505094505050505060405180910390a180915050949350505050565b6000606660009054906101000a900473ffffffffffffffffffffffffffffffffffffffff1673ffffffffffffffffffffffffffffffffffffffff1663bc79a12c6040518163ffffffff1660e01b815260040160206040518083038186803b1580156111ca57600080fd5b505afa1580156111de573d6000803e3d6000fd5b505050506040513d60208110156111f457600080fd5b8101908080519060200190929190505050905090565b600060019054906101000a900460ff16806112295750611228611455565b5b8061124057506000809054906101000a900460ff16155b611295576040517f08c379a000000000000000000000000000000000000000000000000000000000815260040180806020018281038252602e81526020018061180e602e913960400191505060405180910390fd5b60008060019054906101000a900460ff1615905080156112e5576001600060016101000a81548160ff02191690831515021790555060016000806101000a81548160ff0219169083151502179055505b6112ee8261146c565b801561130f5760008060016101000a81548160ff0219169083151502179055505b5050565b61131b610a97565b61138d576040517f08c379a00000000000000000000000000000000000000000000000000000000081526004018080602001828103825260208152602001807f4f776e61626c653a2063616c6c6572206973206e6f7420746865206f776e657281525060200191505060405180910390fd5b6113968161162a565b50565b6113a1610a97565b611413576040517f08c379a00000000000000000000000000000000000000000000000000000000081526004018080602001828103825260208152602001807f4f776e61626c653a2063616c6c6572206973206e6f7420746865206f776e657281525060200191505060405180910390fd5b7fa274fb50f231ea5e98c7e7372649427cedc055bfcf0212834db4188b56f09957816040518082815260200191505060405180910390a150565b600033905090565b6000803090506000813b9050600081149250505090565b600060019054906101000a900460ff168061148b575061148a611455565b5b806114a257506000809054906101000a900460ff16155b6114f7576040517f08c379a000000000000000000000000000000000000000000000000000000000815260040180806020018281038252602e81526020018061180e602e913960400191505060405180910390fd5b60008060019054906101000a900460ff161590508015611547576001600060016101000a81548160ff02191690831515021790555060016000806101000a81548160ff0219169083151502179055505b81603360006101000a81548173ffffffffffffffffffffffffffffffffffffffff021916908373ffffffffffffffffffffffffffffffffffffffff160217905550603360009054906101000a900473ffffffffffffffffffffffffffffffffffffffff1673ffffffffffffffffffffffffffffffffffffffff16600073ffffffffffffffffffffffffffffffffffffffff167f8be0079c531659141344cd1fd0a4f28419497f9722a3daafe3b4186f6b6457e060405160405180910390a380156116265760008060016101000a81548160ff0219169083151502179055505b5050565b600073ffffffffffffffffffffffffffffffffffffffff168173ffffffffffffffffffffffffffffffffffffffff1614156116b0576040517f08c379a00000000000000000000000000000000000000000000000000000000081526004018080602001828103825260268152602001806117716026913960400191505060405180910390fd5b8073ffffffffffffffffffffffffffffffffffffffff16603360009054906101000a900473ffffffffffffffffffffffffffffffffffffffff1673ffffffffffffffffffffffffffffffffffffffff167f8be0079c531659141344cd1fd0a4f28419497f9722a3daafe3b4186f6b6457e060405160405180910390a380603360006101000a81548173ffffffffffffffffffffffffffffffffffffffff021916908373ffffffffffffffffffffffffffffffffffffffff1602179055505056fe4f776e61626c653a206e6577206f776e657220697320746865207a65726f2061646472657373796f7520646f6e742068617665207065726d697373696f6e20746f206465706c6f79206f72206f766572777269746520746869732066756e6374696f6e4572726f723a207468652076616c756520284554482920796f752073656e7420697320696e617070726f70726961746520746f206465706c6f79436f6e747261637420696e7374616e63652068617320616c7265616479206265656e20696e697469616c697a6564a265627a7a72315820632895d994f9d98bf22c9e038d84fa4334af96cf59f1aeb13c7362d89a4199da64736f6c63430005100032",
  "compiler": {
    "name": "solc",
    "version": "0.5.16+commit.9c3226ce.Emscripten.clang",
    "optimizer": {
      "enabled": false,
      "runs": 200
    },
    "evmVersion": "petersburg"
  }
}