{
  "fileName": "etherlessStorage.sol",
  "contractName": "EtherlessStorage",
  "source": "pragma solidity 0.5.16;\n\nimport \"./etherlessStorageInterface.sol\";\nimport \"@openzeppelin/contracts-ethereum-package/contracts/ownership/Ownable.sol\";\nimport \"@openzeppelin/upgrades/contracts/Initializable.sol\";\nimport \"@openzeppelin/contracts-ethereum-package/contracts/math/SafeMath.sol\";\n\ncontract EtherlessStorage is Initializable, Ownable, EtherlessStorageInterface {\n\n    using SafeMath for uint256;\n\n    uint constant public DEPLOY_FEE = 0.002 ether;\n\n    enum Availability {unassigned, available, unavailable}\n\n    mapping (string => address) private funcOwnership;\n    mapping (string => uint) private funcPrices;\n    mapping (string => Availability) private funcAvailability;\n\n    mapping (bytes32 => address) private operationUsers;\n    mapping (bytes32 => uint) private operationCosts;\n\n    mapping (address => bool) private whitelistAddresses;\n\n    function initialize(address _sender) public initializer {\n        Ownable.initialize(_sender);\n    }\n\n    modifier onlyWhitelist {\n      require(\n          msg.sender == owner() || whitelistAddresses[msg.sender] == true,\n          \"Only whitelist addresses can call this function.\"\n      );\n      _;\n    }\n\n    function _compareString(string memory _first, string memory _second) private pure returns (bool) {\n      return (keccak256(abi.encodePacked(_first)) == keccak256(abi.encodePacked(_second)));\n    }\n\n    function getDeployFee() external pure returns (uint) {\n      return DEPLOY_FEE;\n    }\n\n    // Private methods\n\n    function _getAvailabilityFromString(string memory _availability) private pure returns (Availability) {\n      if (_compareString(_availability, \"available\")) {\n        return Availability.available;\n      } else if (_compareString(_availability, \"unavailable\")) {\n        return Availability.unavailable;\n      }\n      return Availability.unassigned;\n    }\n\n    function _getStringFromAvailability(Availability _availability) private pure returns (string memory) {\n      if (Availability.available == _availability) {\n        return \"available\";\n      } else if (Availability.unavailable == _availability) {\n        return \"unavailable\";\n      }\n      return \"unassigned\";\n    }\n\n    function _hasFuncPermission(string memory _funcName, address _devAddress) private view returns(bool) {\n      return funcOwnership[_funcName] == _devAddress || _devAddress == owner() || funcOwnership[_funcName] == address(0);\n    }\n\n    function _setFuncOwnership(string memory _funcName, address _devAddress) private {\n      funcOwnership[_funcName] = _devAddress;\n    }\n\n    function _getFuncOwnership(string memory _funcName) private view returns (address) {\n      return funcOwnership[_funcName];\n    }\n    \n    function _setFuncPrice(string memory _funcName, uint _fPrice) private {\n        funcPrices[_funcName] = _fPrice;\n    }\n\n    function _setFuncAvailability(string memory _funcName, string memory _availability) private {\n        funcAvailability[_funcName] = _getAvailabilityFromString(_availability);\n    }\n\n    function _getFuncAvailability(string memory _funcName) private view returns (string memory) {\n      return _getStringFromAvailability(funcAvailability[_funcName]);\n    }\n\n    function _getOperationHash(uint16 _sender, string memory _operationType, string memory _funcName) private pure returns (bytes32) {\n      return keccak256(abi.encodePacked(_sender, _operationType, _funcName));\n    }\n\n    function _getOperationCost(bytes32 _operationHash) private view returns (uint) {\n      return operationCosts[_operationHash];\n    }\n\n    function _setUserOperation(address _userAddress, bytes32 _operationHash) private {\n        operationUsers[_operationHash] = _userAddress;\n        operationCosts[_operationHash] = msg.value;\n    }\n\n    function _removeUserOperation(bytes32 _operationHash) private {\n        delete operationUsers[_operationHash];\n        delete operationCosts[_operationHash];\n    }\n\n    function _checkUserOperationExistance(bytes32 _operationHash) private view returns (bool) {\n      return operationUsers[_operationHash] != address(0);\n    }\n\n    function _closeOperationWithTotalExpenses(bytes32 _operationHash, uint _totalExpenses) private {\n\n      uint refund = _getOperationCost(_operationHash).sub(_totalExpenses);\n\n      if (refund > 0) {\n        _payCommissions(operationUsers[_operationHash], refund);\n        _payCommissions(owner(), _getOperationCost(_operationHash).sub(refund));\n      } else {\n        _payCommissions(owner(), _getOperationCost(_operationHash));\n      }\n\n      _removeUserOperation(_operationHash);\n    }\n\n    function _closeOperation(bytes32 _operationHash) private {\n      _payCommissions(owner(), _getOperationCost(_operationHash));\n      _removeUserOperation(_operationHash);\n    }\n\n    function _cancelOperation(bytes32 _operationHash) private {\n      _payCommissions(_getOperationUser(_operationHash), _getOperationCost(_operationHash));\n      _removeUserOperation(_operationHash);\n    }\n\n    function _payCommissions(address _receiver, uint _amount) private {\n      (address(uint160(_receiver))).transfer(_amount);\n    }\n\n    function _getOperationUser(bytes32 _operationHash) private view returns (address) {\n      return operationUsers[_operationHash];\n    }\n\n    // Public methods\n\n    function setWhitelistAddress(address sender) external onlyOwner {\n      whitelistAddresses[sender] = true;\n    }\n\n    function hasFuncPermission(string calldata _funcName, address _devAddress) external view onlyWhitelist returns(bool) {\n      return _hasFuncPermission(_funcName, _devAddress);\n    }\n\n    function removeFuncOwnership(string calldata _funcName) external onlyWhitelist {\n      delete funcOwnership[_funcName];\n    }\n\n    function addFuncOwnership(string calldata _funcName, address _owner) external onlyWhitelist {\n      if (_getFuncOwnership(_funcName) != _owner) {\n        _setFuncOwnership(_funcName, _owner);\n      }\n    }\n\n    function getFuncPrice(string calldata _funcName) external view returns (uint) {\n      return funcPrices[_funcName];\n    }\n\n    function checkFuncExistance(string calldata _funcName) external view returns (bool) {\n      return funcOwnership[_funcName] != address(0);\n    }\n\n    function checkFuncAvailability(string calldata _funcName) external view returns (bool) {\n      return _compareString(_getFuncAvailability(_funcName), \"available\");\n    }\n\n    function addFunc(string calldata _funcName, string calldata _availability, address _devAddress, uint _funcPrice) external onlyWhitelist {\n      require(_hasFuncPermission(_funcName, _devAddress), 'dev address has no permission on the specified func');\n      if (_getFuncOwnership(_funcName) != _devAddress) {\n        _setFuncOwnership(_funcName, _devAddress);\n      }\n      _setFuncAvailability(_funcName, _availability);\n      _setFuncPrice(_funcName, _funcPrice);\n    }\n\n    function removeFunc(string calldata _funcName, address _devAddress) external onlyWhitelist {\n      require(_hasFuncPermission(_funcName, _devAddress), 'dev address has no permission on the specified func');\n      delete funcOwnership[_funcName];\n      delete funcPrices[_funcName];\n      delete funcAvailability[_funcName];\n    }\n\n    function markHidden(string calldata _funcName) external onlyWhitelist {\n      _setFuncAvailability(_funcName, \"unavailable\");\n    }\n\n    function getOperationHash(uint16 _sender, string calldata _operationType, string calldata _funcName) external view onlyWhitelist returns (bytes32) {\n      return _getOperationHash(_sender, _operationType, _funcName);\n    }\n\n    function setUserOperation(address _userAddress, bytes32 _operationHash) external payable onlyWhitelist {\n      _setUserOperation(_userAddress, _operationHash);\n    }\n\n    function closeOperationWithTotalExpenses(bytes32 _operationHash, uint _totalExpenses) external onlyWhitelist {\n      require(_checkUserOperationExistance(_operationHash), 'the operation hash specified no longer exist');\n      _closeOperationWithTotalExpenses(_operationHash, _totalExpenses);\n    }\n\n    function closeOperation(bytes32 _operationHash) external onlyWhitelist {\n      require(_checkUserOperationExistance(_operationHash), 'the operation hash specified no longer exist');\n      _closeOperation(_operationHash);\n    }\n\n    function cancelOperation(bytes32 _operationHash) external onlyWhitelist {\n      require(_checkUserOperationExistance(_operationHash), 'the operation hash specified no longer exist');\n      _cancelOperation(_operationHash);  \n    }\n\n    function payCommissions(address _receiver, uint _amount) external onlyWhitelist {\n      _payCommissions(_receiver, _amount);\n    }\n\n}",
  "sourcePath": "contracts/etherlessStorage.sol",
  "abi": [
    {
      "anonymous": false,
      "inputs": [
        {
          "indexed": true,
          "internalType": "address",
          "name": "previousOwner",
          "type": "address"
        },
        {
          "indexed": true,
          "internalType": "address",
          "name": "newOwner",
          "type": "address"
        }
      ],
      "name": "OwnershipTransferred",
      "type": "event"
    },
    {
      "constant": true,
      "inputs": [],
      "name": "DEPLOY_FEE",
      "outputs": [
        {
          "internalType": "uint256",
          "name": "",
          "type": "uint256"
        }
      ],
      "payable": false,
      "stateMutability": "view",
      "type": "function"
    },
    {
      "constant": false,
      "inputs": [
        {
          "internalType": "string",
          "name": "_funcName",
          "type": "string"
        },
        {
          "internalType": "string",
          "name": "_availability",
          "type": "string"
        },
        {
          "internalType": "address",
          "name": "_devAddress",
          "type": "address"
        },
        {
          "internalType": "uint256",
          "name": "_funcPrice",
          "type": "uint256"
        }
      ],
      "name": "addFunc",
      "outputs": [],
      "payable": false,
      "stateMutability": "nonpayable",
      "type": "function"
    },
    {
      "constant": false,
      "inputs": [
        {
          "internalType": "string",
          "name": "_funcName",
          "type": "string"
        },
        {
          "internalType": "address",
          "name": "_owner",
          "type": "address"
        }
      ],
      "name": "addFuncOwnership",
      "outputs": [],
      "payable": false,
      "stateMutability": "nonpayable",
      "type": "function"
    },
    {
      "constant": false,
      "inputs": [
        {
          "internalType": "bytes32",
          "name": "_operationHash",
          "type": "bytes32"
        }
      ],
      "name": "cancelOperation",
      "outputs": [],
      "payable": false,
      "stateMutability": "nonpayable",
      "type": "function"
    },
    {
      "constant": true,
      "inputs": [
        {
          "internalType": "string",
          "name": "_funcName",
          "type": "string"
        }
      ],
      "name": "checkFuncAvailability",
      "outputs": [
        {
          "internalType": "bool",
          "name": "",
          "type": "bool"
        }
      ],
      "payable": false,
      "stateMutability": "view",
      "type": "function"
    },
    {
      "constant": true,
      "inputs": [
        {
          "internalType": "string",
          "name": "_funcName",
          "type": "string"
        }
      ],
      "name": "checkFuncExistance",
      "outputs": [
        {
          "internalType": "bool",
          "name": "",
          "type": "bool"
        }
      ],
      "payable": false,
      "stateMutability": "view",
      "type": "function"
    },
    {
      "constant": false,
      "inputs": [
        {
          "internalType": "bytes32",
          "name": "_operationHash",
          "type": "bytes32"
        }
      ],
      "name": "closeOperation",
      "outputs": [],
      "payable": false,
      "stateMutability": "nonpayable",
      "type": "function"
    },
    {
      "constant": false,
      "inputs": [
        {
          "internalType": "bytes32",
          "name": "_operationHash",
          "type": "bytes32"
        },
        {
          "internalType": "uint256",
          "name": "_totalExpenses",
          "type": "uint256"
        }
      ],
      "name": "closeOperationWithTotalExpenses",
      "outputs": [],
      "payable": false,
      "stateMutability": "nonpayable",
      "type": "function"
    },
    {
      "constant": true,
      "inputs": [],
      "name": "getDeployFee",
      "outputs": [
        {
          "internalType": "uint256",
          "name": "",
          "type": "uint256"
        }
      ],
      "payable": false,
      "stateMutability": "pure",
      "type": "function"
    },
    {
      "constant": true,
      "inputs": [
        {
          "internalType": "string",
          "name": "_funcName",
          "type": "string"
        }
      ],
      "name": "getFuncPrice",
      "outputs": [
        {
          "internalType": "uint256",
          "name": "",
          "type": "uint256"
        }
      ],
      "payable": false,
      "stateMutability": "view",
      "type": "function"
    },
    {
      "constant": true,
      "inputs": [
        {
          "internalType": "uint16",
          "name": "_sender",
          "type": "uint16"
        },
        {
          "internalType": "string",
          "name": "_operationType",
          "type": "string"
        },
        {
          "internalType": "string",
          "name": "_funcName",
          "type": "string"
        }
      ],
      "name": "getOperationHash",
      "outputs": [
        {
          "internalType": "bytes32",
          "name": "",
          "type": "bytes32"
        }
      ],
      "payable": false,
      "stateMutability": "view",
      "type": "function"
    },
    {
      "constant": true,
      "inputs": [
        {
          "internalType": "string",
          "name": "_funcName",
          "type": "string"
        },
        {
          "internalType": "address",
          "name": "_devAddress",
          "type": "address"
        }
      ],
      "name": "hasFuncPermission",
      "outputs": [
        {
          "internalType": "bool",
          "name": "",
          "type": "bool"
        }
      ],
      "payable": false,
      "stateMutability": "view",
      "type": "function"
    },
    {
      "constant": false,
      "inputs": [
        {
          "internalType": "address",
          "name": "_sender",
          "type": "address"
        }
      ],
      "name": "initialize",
      "outputs": [],
      "payable": false,
      "stateMutability": "nonpayable",
      "type": "function"
    },
    {
      "constant": true,
      "inputs": [],
      "name": "isOwner",
      "outputs": [
        {
          "internalType": "bool",
          "name": "",
          "type": "bool"
        }
      ],
      "payable": false,
      "stateMutability": "view",
      "type": "function"
    },
    {
      "constant": false,
      "inputs": [
        {
          "internalType": "string",
          "name": "_funcName",
          "type": "string"
        }
      ],
      "name": "markHidden",
      "outputs": [],
      "payable": false,
      "stateMutability": "nonpayable",
      "type": "function"
    },
    {
      "constant": true,
      "inputs": [],
      "name": "owner",
      "outputs": [
        {
          "internalType": "address",
          "name": "",
          "type": "address"
        }
      ],
      "payable": false,
      "stateMutability": "view",
      "type": "function"
    },
    {
      "constant": false,
      "inputs": [
        {
          "internalType": "address",
          "name": "_receiver",
          "type": "address"
        },
        {
          "internalType": "uint256",
          "name": "_amount",
          "type": "uint256"
        }
      ],
      "name": "payCommissions",
      "outputs": [],
      "payable": false,
      "stateMutability": "nonpayable",
      "type": "function"
    },
    {
      "constant": false,
      "inputs": [
        {
          "internalType": "string",
          "name": "_funcName",
          "type": "string"
        },
        {
          "internalType": "address",
          "name": "_devAddress",
          "type": "address"
        }
      ],
      "name": "removeFunc",
      "outputs": [],
      "payable": false,
      "stateMutability": "nonpayable",
      "type": "function"
    },
    {
      "constant": false,
      "inputs": [
        {
          "internalType": "string",
          "name": "_funcName",
          "type": "string"
        }
      ],
      "name": "removeFuncOwnership",
      "outputs": [],
      "payable": false,
      "stateMutability": "nonpayable",
      "type": "function"
    },
    {
      "constant": false,
      "inputs": [],
      "name": "renounceOwnership",
      "outputs": [],
      "payable": false,
      "stateMutability": "nonpayable",
      "type": "function"
    },
    {
      "constant": false,
      "inputs": [
        {
          "internalType": "address",
          "name": "_userAddress",
          "type": "address"
        },
        {
          "internalType": "bytes32",
          "name": "_operationHash",
          "type": "bytes32"
        }
      ],
      "name": "setUserOperation",
      "outputs": [],
      "payable": true,
      "stateMutability": "payable",
      "type": "function"
    },
    {
      "constant": false,
      "inputs": [
        {
          "internalType": "address",
          "name": "sender",
          "type": "address"
        }
      ],
      "name": "setWhitelistAddress",
      "outputs": [],
      "payable": false,
      "stateMutability": "nonpayable",
      "type": "function"
    },
    {
      "constant": false,
      "inputs": [
        {
          "internalType": "address",
          "name": "newOwner",
          "type": "address"
        }
      ],
      "name": "transferOwnership",
      "outputs": [],
      "payable": false,
      "stateMutability": "nonpayable",
      "type": "function"
    }
  ],
  "bytecode": "0x6080604052613392806100136000396000f3fe6080604052600436106101405760003560e01c80639fde5cfc116100b6578063c3742a801161006f578063c3742a8014610912578063c44b0a7614610960578063c4d66de81461099b578063c832e2e5146109ec578063d2d06d6214610a92578063f2fde38b14610b2c57610140565b80639fde5cfc14610665578063a224c74514610762578063ada4ac74146107b3578063ade621091461080e578063bc79a12c146108ac578063beadf957146108d757610140565b80634f23daf3116101085780634f23daf314610479578063715018a6146104a457806374c53598146104bb5780638132be26146105595780638da5cb5b146105df5780638f32d59b1461063657610140565b8063046b0ddc146101455780631d978ebf1461018a578063419227071461021057806345e69998146103155780634dea943c146103bb575b600080fd5b34801561015157600080fd5b506101886004803603604081101561016857600080fd5b810190808035906020019092919080359060200190929190505050610b7d565b005b34801561019657600080fd5b5061020e600480360360208110156101ad57600080fd5b81019080803590602001906401000000008111156101ca57600080fd5b8201836020820111156101dc57600080fd5b803590602001918460018302840111640100000000831117156101fe57600080fd5b9091929391929390505050610ccf565b005b34801561021c57600080fd5b506103136004803603608081101561023357600080fd5b810190808035906020019064010000000081111561025057600080fd5b82018360208201111561026257600080fd5b8035906020019184600183028401116401000000008311171561028457600080fd5b9091929391929390803590602001906401000000008111156102a557600080fd5b8201836020820111156102b757600080fd5b803590602001918460018302840111640100000000831117156102d957600080fd5b9091929391929390803573ffffffffffffffffffffffffffffffffffffffff16906020019092919080359060200190929190505050610e3c565b005b34801561032157600080fd5b506103b96004803603604081101561033857600080fd5b810190808035906020019064010000000081111561035557600080fd5b82018360208201111561036757600080fd5b8035906020019184600183028401116401000000008311171561038957600080fd5b9091929391929390803573ffffffffffffffffffffffffffffffffffffffff16906020019092919050505061117b565b005b3480156103c757600080fd5b5061045f600480360360408110156103de57600080fd5b81019080803590602001906401000000008111156103fb57600080fd5b82018360208201111561040d57600080fd5b8035906020019184600183028401116401000000008311171561042f57600080fd5b9091929391929390803573ffffffffffffffffffffffffffffffffffffffff1690602001909291905050506113b5565b604051808215151515815260200191505060405180910390f35b34801561048557600080fd5b5061048e6114f4565b6040518082815260200191505060405180910390f35b3480156104b057600080fd5b506104b96114ff565b005b3480156104c757600080fd5b5061053f600480360360208110156104de57600080fd5b81019080803590602001906401000000008111156104fb57600080fd5b82018360208201111561050d57600080fd5b8035906020019184600183028401116401000000008311171561052f57600080fd5b909192939192939050505061163a565b604051808215151515815260200191505060405180910390f35b34801561056557600080fd5b506105dd6004803603602081101561057c57600080fd5b810190808035906020019064010000000081111561059957600080fd5b8201836020820111156105ab57600080fd5b803590602001918460018302840111640100000000831117156105cd57600080fd5b90919293919293905050506116bb565b005b3480156105eb57600080fd5b506105f46117ef565b604051808273ffffffffffffffffffffffffffffffffffffffff1673ffffffffffffffffffffffffffffffffffffffff16815260200191505060405180910390f35b34801561064257600080fd5b5061064b611819565b604051808215151515815260200191505060405180910390f35b34801561067157600080fd5b5061074c6004803603606081101561068857600080fd5b81019080803561ffff169060200190929190803590602001906401000000008111156106b357600080fd5b8201836020820111156106c557600080fd5b803590602001918460018302840111640100000000831117156106e757600080fd5b90919293919293908035906020019064010000000081111561070857600080fd5b82018360208201111561071a57600080fd5b8035906020019184600183028401116401000000008311171561073c57600080fd5b9091929391929390505050611878565b6040518082815260200191505060405180910390f35b34801561076e57600080fd5b506107b16004803603602081101561078557600080fd5b81019080803573ffffffffffffffffffffffffffffffffffffffff1690602001909291905050506119fe565b005b3480156107bf57600080fd5b5061080c600480360360408110156107d657600080fd5b81019080803573ffffffffffffffffffffffffffffffffffffffff16906020019092919080359060200190929190505050611ad3565b005b34801561081a57600080fd5b506108926004803603602081101561083157600080fd5b810190808035906020019064010000000081111561084e57600080fd5b82018360208201111561086057600080fd5b8035906020019184600183028401116401000000008311171561088257600080fd5b9091929391929390505050611bc7565b604051808215151515815260200191505060405180910390f35b3480156108b857600080fd5b506108c1611c5c565b6040518082815260200191505060405180910390f35b3480156108e357600080fd5b50610910600480360360208110156108fa57600080fd5b8101908080359060200190929190505050611c6b565b005b61095e6004803603604081101561092857600080fd5b81019080803573ffffffffffffffffffffffffffffffffffffffff16906020019092919080359060200190929190505050611dbb565b005b34801561096c57600080fd5b506109996004803603602081101561098357600080fd5b8101908080359060200190929190505050611eaf565b005b3480156109a757600080fd5b506109ea600480360360208110156109be57600080fd5b81019080803573ffffffffffffffffffffffffffffffffffffffff169060200190929190505050611fff565b005b3480156109f857600080fd5b50610a9060048036036040811015610a0f57600080fd5b8101908080359060200190640100000000811115610a2c57600080fd5b820183602082011115610a3e57600080fd5b80359060200191846001830284011164010000000083111715610a6057600080fd5b9091929391929390803573ffffffffffffffffffffffffffffffffffffffff169060200190929190505050612108565b005b348015610a9e57600080fd5b50610b1660048036036020811015610ab557600080fd5b8101908080359060200190640100000000811115610ad257600080fd5b820183602082011115610ae457600080fd5b80359060200191846001830284011164010000000083111715610b0657600080fd5b90919293919293905050506122c1565b6040518082815260200191505060405180910390f35b348015610b3857600080fd5b50610b7b60048036036020811015610b4f57600080fd5b81019080803573ffffffffffffffffffffffffffffffffffffffff1690602001909291905050506122f3565b005b610b856117ef565b73ffffffffffffffffffffffffffffffffffffffff163373ffffffffffffffffffffffffffffffffffffffff161480610c0e575060011515606b60003373ffffffffffffffffffffffffffffffffffffffff1673ffffffffffffffffffffffffffffffffffffffff16815260200190815260200160002060009054906101000a900460ff161515145b610c63576040517f08c379a00000000000000000000000000000000000000000000000000000000081526004018080602001828103825260308152602001806132d46030913960400191505060405180910390fd5b610c6c82612379565b610cc1576040517f08c379a000000000000000000000000000000000000000000000000000000000815260040180806020018281038252602c815260200180613332602c913960400191505060405180910390fd5b610ccb82826123e5565b5050565b610cd76117ef565b73ffffffffffffffffffffffffffffffffffffffff163373ffffffffffffffffffffffffffffffffffffffff161480610d60575060011515606b60003373ffffffffffffffffffffffffffffffffffffffff1673ffffffffffffffffffffffffffffffffffffffff16815260200190815260200160002060009054906101000a900460ff161515145b610db5576040517f08c379a00000000000000000000000000000000000000000000000000000000081526004018080602001828103825260308152602001806132d46030913960400191505060405180910390fd5b610e3882828080601f016020809104026020016040519081016040528093929190818152602001838380828437600081840152601f19601f820116905080830192505050505050506040518060400160405280600b81526020017f756e617661696c61626c650000000000000000000000000000000000000000008152506124a2565b5050565b610e446117ef565b73ffffffffffffffffffffffffffffffffffffffff163373ffffffffffffffffffffffffffffffffffffffff161480610ecd575060011515606b60003373ffffffffffffffffffffffffffffffffffffffff1673ffffffffffffffffffffffffffffffffffffffff16815260200190815260200160002060009054906101000a900460ff161515145b610f22576040517f08c379a00000000000000000000000000000000000000000000000000000000081526004018080602001828103825260308152602001806132d46030913960400191505060405180910390fd5b610f7086868080601f016020809104026020016040519081016040528093929190818152602001838380828437600081840152601f19601f8201169050808301925050505050505083612538565b610fc5576040517f08c379a00000000000000000000000000000000000000000000000000000000081526004018080602001828103825260338152602001806132a16033913960400191505060405180910390fd5b8173ffffffffffffffffffffffffffffffffffffffff1661102987878080601f016020809104026020016040519081016040528093929190818152602001838380828437600081840152601f19601f820116905080830192505050505050506126f7565b73ffffffffffffffffffffffffffffffffffffffff16146110935761109286868080601f016020809104026020016040519081016040528093929190818152602001838380828437600081840152601f19601f820116905080830192505050505050508361278a565b5b61112586868080601f016020809104026020016040519081016040528093929190818152602001838380828437600081840152601f19601f8201169050808301925050505050505085858080601f016020809104026020016040519081016040528093929190818152602001838380828437600081840152601f19601f820116905080830192505050505050506124a2565b61117386868080601f016020809104026020016040519081016040528093929190818152602001838380828437600081840152601f19601f8201169050808301925050505050505082612836565b505050505050565b6111836117ef565b73ffffffffffffffffffffffffffffffffffffffff163373ffffffffffffffffffffffffffffffffffffffff16148061120c575060011515606b60003373ffffffffffffffffffffffffffffffffffffffff1673ffffffffffffffffffffffffffffffffffffffff16815260200190815260200160002060009054906101000a900460ff161515145b611261576040517f08c379a00000000000000000000000000000000000000000000000000000000081526004018080602001828103825260308152602001806132d46030913960400191505060405180910390fd5b6112af83838080601f016020809104026020016040519081016040528093929190818152602001838380828437600081840152601f19601f8201169050808301925050505050505082612538565b611304576040517f08c379a00000000000000000000000000000000000000000000000000000000081526004018080602001828103825260338152602001806132a16033913960400191505060405180910390fd5b60668383604051808383808284378083019250505092505050908152602001604051809103902060006101000a81549073ffffffffffffffffffffffffffffffffffffffff02191690556067838360405180838380828437808301925050509250505090815260200160405180910390206000905560688383604051808383808284378083019250505092505050908152602001604051809103902060006101000a81549060ff0219169055505050565b60006113bf6117ef565b73ffffffffffffffffffffffffffffffffffffffff163373ffffffffffffffffffffffffffffffffffffffff161480611448575060011515606b60003373ffffffffffffffffffffffffffffffffffffffff1673ffffffffffffffffffffffffffffffffffffffff16815260200190815260200160002060009054906101000a900460ff161515145b61149d576040517f08c379a00000000000000000000000000000000000000000000000000000000081526004018080602001828103825260308152602001806132d46030913960400191505060405180910390fd5b6114eb84848080601f016020809104026020016040519081016040528093929190818152602001838380828437600081840152601f19601f8201169050808301925050505050505083612538565b90509392505050565b66071afd498d000081565b611507611819565b611579576040517f08c379a00000000000000000000000000000000000000000000000000000000081526004018080602001828103825260208152602001807f4f776e61626c653a2063616c6c6572206973206e6f7420746865206f776e657281525060200191505060405180910390fd5b600073ffffffffffffffffffffffffffffffffffffffff16603360009054906101000a900473ffffffffffffffffffffffffffffffffffffffff1673ffffffffffffffffffffffffffffffffffffffff167f8be0079c531659141344cd1fd0a4f28419497f9722a3daafe3b4186f6b6457e060405160405180910390a36000603360006101000a81548173ffffffffffffffffffffffffffffffffffffffff021916908373ffffffffffffffffffffffffffffffffffffffff160217905550565b60008073ffffffffffffffffffffffffffffffffffffffff1660668484604051808383808284378083019250505092505050908152602001604051809103902060009054906101000a900473ffffffffffffffffffffffffffffffffffffffff1673ffffffffffffffffffffffffffffffffffffffff161415905092915050565b6116c36117ef565b73ffffffffffffffffffffffffffffffffffffffff163373ffffffffffffffffffffffffffffffffffffffff16148061174c575060011515606b60003373ffffffffffffffffffffffffffffffffffffffff1673ffffffffffffffffffffffffffffffffffffffff16815260200190815260200160002060009054906101000a900460ff161515145b6117a1576040517f08c379a00000000000000000000000000000000000000000000000000000000081526004018080602001828103825260308152602001806132d46030913960400191505060405180910390fd5b60668282604051808383808284378083019250505092505050908152602001604051809103902060006101000a81549073ffffffffffffffffffffffffffffffffffffffff02191690555050565b6000603360009054906101000a900473ffffffffffffffffffffffffffffffffffffffff16905090565b6000603360009054906101000a900473ffffffffffffffffffffffffffffffffffffffff1673ffffffffffffffffffffffffffffffffffffffff1661185c6128a8565b73ffffffffffffffffffffffffffffffffffffffff1614905090565b60006118826117ef565b73ffffffffffffffffffffffffffffffffffffffff163373ffffffffffffffffffffffffffffffffffffffff16148061190b575060011515606b60003373ffffffffffffffffffffffffffffffffffffffff1673ffffffffffffffffffffffffffffffffffffffff16815260200190815260200160002060009054906101000a900460ff161515145b611960576040517f08c379a00000000000000000000000000000000000000000000000000000000081526004018080602001828103825260308152602001806132d46030913960400191505060405180910390fd5b6119f38686868080601f016020809104026020016040519081016040528093929190818152602001838380828437600081840152601f19601f8201169050808301925050505050505085858080601f016020809104026020016040519081016040528093929190818152602001838380828437600081840152601f19601f820116905080830192505050505050506128b0565b905095945050505050565b611a06611819565b611a78576040517f08c379a00000000000000000000000000000000000000000000000000000000081526004018080602001828103825260208152602001807f4f776e61626c653a2063616c6c6572206973206e6f7420746865206f776e657281525060200191505060405180910390fd5b6001606b60008373ffffffffffffffffffffffffffffffffffffffff1673ffffffffffffffffffffffffffffffffffffffff16815260200190815260200160002060006101000a81548160ff02191690831515021790555050565b611adb6117ef565b73ffffffffffffffffffffffffffffffffffffffff163373ffffffffffffffffffffffffffffffffffffffff161480611b64575060011515606b60003373ffffffffffffffffffffffffffffffffffffffff1673ffffffffffffffffffffffffffffffffffffffff16815260200190815260200160002060009054906101000a900460ff161515145b611bb9576040517f08c379a00000000000000000000000000000000000000000000000000000000081526004018080602001828103825260308152602001806132d46030913960400191505060405180910390fd5b611bc38282612993565b5050565b6000611c54611c1984848080601f016020809104026020016040519081016040528093929190818152602001838380828437600081840152601f19601f820116905080830192505050505050506129de565b6040518060400160405280600981526020017f617661696c61626c650000000000000000000000000000000000000000000000815250612a66565b905092915050565b600066071afd498d0000905090565b611c736117ef565b73ffffffffffffffffffffffffffffffffffffffff163373ffffffffffffffffffffffffffffffffffffffff161480611cfc575060011515606b60003373ffffffffffffffffffffffffffffffffffffffff1673ffffffffffffffffffffffffffffffffffffffff16815260200190815260200160002060009054906101000a900460ff161515145b611d51576040517f08c379a00000000000000000000000000000000000000000000000000000000081526004018080602001828103825260308152602001806132d46030913960400191505060405180910390fd5b611d5a81612379565b611daf576040517f08c379a000000000000000000000000000000000000000000000000000000000815260040180806020018281038252602c815260200180613332602c913960400191505060405180910390fd5b611db881612b55565b50565b611dc36117ef565b73ffffffffffffffffffffffffffffffffffffffff163373ffffffffffffffffffffffffffffffffffffffff161480611e4c575060011515606b60003373ffffffffffffffffffffffffffffffffffffffff1673ffffffffffffffffffffffffffffffffffffffff16815260200190815260200160002060009054906101000a900460ff161515145b611ea1576040517f08c379a00000000000000000000000000000000000000000000000000000000081526004018080602001828103825260308152602001806132d46030913960400191505060405180910390fd5b611eab8282612b7b565b5050565b611eb76117ef565b73ffffffffffffffffffffffffffffffffffffffff163373ffffffffffffffffffffffffffffffffffffffff161480611f40575060011515606b60003373ffffffffffffffffffffffffffffffffffffffff1673ffffffffffffffffffffffffffffffffffffffff16815260200190815260200160002060009054906101000a900460ff161515145b611f95576040517f08c379a00000000000000000000000000000000000000000000000000000000081526004018080602001828103825260308152602001806132d46030913960400191505060405180910390fd5b611f9e81612379565b611ff3576040517f08c379a000000000000000000000000000000000000000000000000000000000815260040180806020018281038252602c815260200180613332602c913960400191505060405180910390fd5b611ffc81612be9565b50565b600060019054906101000a900460ff168061201e575061201d612c0e565b5b8061203557506000809054906101000a900460ff16155b61208a576040517f08c379a000000000000000000000000000000000000000000000000000000000815260040180806020018281038252602e815260200180613304602e913960400191505060405180910390fd5b60008060019054906101000a900460ff1615905080156120da576001600060016101000a81548160ff02191690831515021790555060016000806101000a81548160ff0219169083151502179055505b6120e382612c25565b80156121045760008060016101000a81548160ff0219169083151502179055505b5050565b6121106117ef565b73ffffffffffffffffffffffffffffffffffffffff163373ffffffffffffffffffffffffffffffffffffffff161480612199575060011515606b60003373ffffffffffffffffffffffffffffffffffffffff1673ffffffffffffffffffffffffffffffffffffffff16815260200190815260200160002060009054906101000a900460ff161515145b6121ee576040517f08c379a00000000000000000000000000000000000000000000000000000000081526004018080602001828103825260308152602001806132d46030913960400191505060405180910390fd5b8073ffffffffffffffffffffffffffffffffffffffff1661225284848080601f016020809104026020016040519081016040528093929190818152602001838380828437600081840152601f19601f820116905080830192505050505050506126f7565b73ffffffffffffffffffffffffffffffffffffffff16146122bc576122bb83838080601f016020809104026020016040519081016040528093929190818152602001838380828437600081840152601f19601f820116905080830192505050505050508261278a565b5b505050565b600060678383604051808383808284378083019250505092505050908152602001604051809103902054905092915050565b6122fb611819565b61236d576040517f08c379a00000000000000000000000000000000000000000000000000000000081526004018080602001828103825260208152602001807f4f776e61626c653a2063616c6c6572206973206e6f7420746865206f776e657281525060200191505060405180910390fd5b61237681612de3565b50565b60008073ffffffffffffffffffffffffffffffffffffffff166069600084815260200190815260200160002060009054906101000a900473ffffffffffffffffffffffffffffffffffffffff1673ffffffffffffffffffffffffffffffffffffffff1614159050919050565b6000612402826123f485612f29565b612f4690919063ffffffff16565b9050600081111561247a5761244a6069600085815260200190815260200160002060009054906101000a900473ffffffffffffffffffffffffffffffffffffffff1682612993565b6124756124556117ef565b6124708361246287612f29565b612f4690919063ffffffff16565b612993565b612494565b6124936124856117ef565b61248e85612f29565b612993565b5b61249d83612f90565b505050565b6124ab81612fe0565b6068836040518082805190602001908083835b602083106124e157805182526020820191506020810190506020830392506124be565b6001836020036101000a038019825116818451168082178552505050505050905001915050908152602001604051809103902060006101000a81548160ff0219169083600281111561252f57fe5b02179055505050565b60008173ffffffffffffffffffffffffffffffffffffffff166066846040518082805190602001908083835b602083106125875780518252602082019150602081019050602083039250612564565b6001836020036101000a038019825116818451168082178552505050505050905001915050908152602001604051809103902060009054906101000a900473ffffffffffffffffffffffffffffffffffffffff1673ffffffffffffffffffffffffffffffffffffffff16148061262f57506126006117ef565b73ffffffffffffffffffffffffffffffffffffffff168273ffffffffffffffffffffffffffffffffffffffff16145b806126ef5750600073ffffffffffffffffffffffffffffffffffffffff166066846040518082805190602001908083835b602083106126835780518252602082019150602081019050602083039250612660565b6001836020036101000a038019825116818451168082178552505050505050905001915050908152602001604051809103902060009054906101000a900473ffffffffffffffffffffffffffffffffffffffff1673ffffffffffffffffffffffffffffffffffffffff16145b905092915050565b60006066826040518082805190602001908083835b6020831061272f578051825260208201915060208101905060208303925061270c565b6001836020036101000a038019825116818451168082178552505050505050905001915050908152602001604051809103902060009054906101000a900473ffffffffffffffffffffffffffffffffffffffff169050919050565b806066836040518082805190602001908083835b602083106127c1578051825260208201915060208101905060208303925061279e565b6001836020036101000a038019825116818451168082178552505050505050905001915050908152602001604051809103902060006101000a81548173ffffffffffffffffffffffffffffffffffffffff021916908373ffffffffffffffffffffffffffffffffffffffff1602179055505050565b806067836040518082805190602001908083835b6020831061286d578051825260208201915060208101905060208303925061284a565b6001836020036101000a0380198251168184511680821785525050505050509050019150509081526020016040518091039020819055505050565b600033905090565b6000838383604051602001808461ffff1661ffff1660f01b815260020183805190602001908083835b602083106128fc57805182526020820191506020810190506020830392506128d9565b6001836020036101000a03801982511681845116808217855250505050505090500182805190602001908083835b6020831061294d578051825260208201915060208101905060208303925061292a565b6001836020036101000a03801982511681845116808217855250505050505090500193505050506040516020818303038152906040528051906020012090509392505050565b8173ffffffffffffffffffffffffffffffffffffffff166108fc829081150290604051600060405180830381858888f193505050501580156129d9573d6000803e3d6000fd5b505050565b6060612a5f6068836040518082805190602001908083835b60208310612a1957805182526020820191506020810190506020830392506129f6565b6001836020036101000a038019825116818451168082178552505050505050905001915050908152602001604051809103902060009054906101000a900460ff16613086565b9050919050565b6000816040516020018082805190602001908083835b60208310612a9f5780518252602082019150602081019050602083039250612a7c565b6001836020036101000a03801982511681845116808217855250505050505090500191505060405160208183030381529060405280519060200120836040516020018082805190602001908083835b60208310612b115780518252602082019150602081019050602083039250612aee565b6001836020036101000a0380198251168184511680821785525050505050509050019150506040516020818303038152906040528051906020012014905092915050565b612b6f612b618261317d565b612b6a83612f29565b612993565b612b7881612f90565b50565b816069600083815260200190815260200160002060006101000a81548173ffffffffffffffffffffffffffffffffffffffff021916908373ffffffffffffffffffffffffffffffffffffffff16021790555034606a6000838152602001908152602001600020819055505050565b612c02612bf46117ef565b612bfd83612f29565b612993565b612c0b81612f90565b50565b6000803090506000813b9050600081149250505090565b600060019054906101000a900460ff1680612c445750612c43612c0e565b5b80612c5b57506000809054906101000a900460ff16155b612cb0576040517f08c379a000000000000000000000000000000000000000000000000000000000815260040180806020018281038252602e815260200180613304602e913960400191505060405180910390fd5b60008060019054906101000a900460ff161590508015612d00576001600060016101000a81548160ff02191690831515021790555060016000806101000a81548160ff0219169083151502179055505b81603360006101000a81548173ffffffffffffffffffffffffffffffffffffffff021916908373ffffffffffffffffffffffffffffffffffffffff160217905550603360009054906101000a900473ffffffffffffffffffffffffffffffffffffffff1673ffffffffffffffffffffffffffffffffffffffff16600073ffffffffffffffffffffffffffffffffffffffff167f8be0079c531659141344cd1fd0a4f28419497f9722a3daafe3b4186f6b6457e060405160405180910390a38015612ddf5760008060016101000a81548160ff0219169083151502179055505b5050565b600073ffffffffffffffffffffffffffffffffffffffff168173ffffffffffffffffffffffffffffffffffffffff161415612e69576040517f08c379a000000000000000000000000000000000000000000000000000000000815260040180806020018281038252602681526020018061327b6026913960400191505060405180910390fd5b8073ffffffffffffffffffffffffffffffffffffffff16603360009054906101000a900473ffffffffffffffffffffffffffffffffffffffff1673ffffffffffffffffffffffffffffffffffffffff167f8be0079c531659141344cd1fd0a4f28419497f9722a3daafe3b4186f6b6457e060405160405180910390a380603360006101000a81548173ffffffffffffffffffffffffffffffffffffffff021916908373ffffffffffffffffffffffffffffffffffffffff16021790555050565b6000606a6000838152602001908152602001600020549050919050565b6000612f8883836040518060400160405280601e81526020017f536166654d6174683a207375627472616374696f6e206f766572666c6f7700008152506131ba565b905092915050565b6069600082815260200190815260200160002060006101000a81549073ffffffffffffffffffffffffffffffffffffffff0219169055606a60008281526020019081526020016000206000905550565b6000613021826040518060400160405280600981526020017f617661696c61626c650000000000000000000000000000000000000000000000815250612a66565b1561302f5760019050613081565b61306e826040518060400160405280600b81526020017f756e617661696c61626c65000000000000000000000000000000000000000000815250612a66565b1561307c5760029050613081565b600090505b919050565b606081600281111561309457fe5b600160028111156130a157fe5b14156130e4576040518060400160405280600981526020017f617661696c61626c6500000000000000000000000000000000000000000000008152509050613178565b8160028111156130f057fe5b6002808111156130fc57fe5b141561313f576040518060400160405280600b81526020017f756e617661696c61626c650000000000000000000000000000000000000000008152509050613178565b6040518060400160405280600a81526020017f756e61737369676e65640000000000000000000000000000000000000000000081525090505b919050565b60006069600083815260200190815260200160002060009054906101000a900473ffffffffffffffffffffffffffffffffffffffff169050919050565b6000838311158290613267576040517f08c379a00000000000000000000000000000000000000000000000000000000081526004018080602001828103825283818151815260200191508051906020019080838360005b8381101561322c578082015181840152602081019050613211565b50505050905090810190601f1680156132595780820380516001836020036101000a031916815260200191505b509250505060405180910390fd5b506000838503905080915050939250505056fe4f776e61626c653a206e6577206f776e657220697320746865207a65726f2061646472657373646576206164647265737320686173206e6f207065726d697373696f6e206f6e20746865207370656369666965642066756e634f6e6c792077686974656c697374206164647265737365732063616e2063616c6c20746869732066756e6374696f6e2e436f6e747261637420696e7374616e63652068617320616c7265616479206265656e20696e697469616c697a6564746865206f7065726174696f6e206861736820737065636966696564206e6f206c6f6e676572206578697374a265627a7a72315820cae325b08c2ea547080c7f49f4b321e4648f7a373a121eb23b5d2dcc903159bf64736f6c63430005100032",
  "compiler": {
    "name": "solc",
    "version": "0.5.16+commit.9c3226ce.Emscripten.clang",
    "optimizer": {
      "enabled": false,
      "runs": 200
    },
    "evmVersion": "petersburg"
  }
}