{
  "fileName": "runContract.sol",
  "contractName": "RunContract",
  "source": "pragma solidity 0.5.16;\n\nimport \"./etherlessStorage.sol\";\n\ncontract RunContract is Initializable, Ownable {\n\n    using SafeMath for uint256;\n\n    EtherlessStorageInterface private etherlessStorage;\n\n    event runRequest(bytes32 operationHash, string funcName, string funcParameters);\n    event runResult(bytes32 operationHash, string funcResult);\n\n    function initialize(address _sender) public initializer {\n        Ownable.initialize(_sender);\n    }\n\n    function setStorage(address _storage) public onlyOwner {\n      etherlessStorage = EtherlessStorageInterface(_storage);\n    }\n\n    function _compareString(string memory _first, string memory _second) private pure returns (bool) {\n      return (keccak256(abi.encodePacked(_first)) == keccak256(abi.encodePacked(_second)));\n    }\n\n    function checkFuncPrice(string calldata _funcName) external view returns (uint) {\n      require(etherlessStorage.checkFuncAvailability(_funcName), \"the function is not available\");\n      return etherlessStorage.getFuncPrice(_funcName);\n    }\n\n    function sendRunRequest(string calldata _funcName, string calldata _funcParameters) external payable returns (bytes32) {\n        require(etherlessStorage.checkFuncAvailability(_funcName), \"the function you requested is not avaiable\");\n        require(msg.value == etherlessStorage.getFuncPrice(_funcName), \"The value (ETH) you sent is inappropriate to run the function\");\n\n        bytes32 operationHash = etherlessStorage.getOperationHash(uint16(msg.sender), \"run\", _funcName);\n        etherlessStorage.setUserOperation.value(msg.value)(msg.sender, operationHash);\n\n        emit runRequest(operationHash, _funcName, _funcParameters);\n        return operationHash;\n    }\n\n    function sendRunResult(string calldata _funcResult, uint _executionPrice, uint _devFee, address payable _devAddress, bytes32 _operationHash) external onlyOwner {\n        etherlessStorage.payCommissions(_devAddress, _devFee);\n        etherlessStorage.payCommissions(msg.sender, _executionPrice);\n\n        uint totalExpenses = _devFee.add(_executionPrice);\n        etherlessStorage.closeOperationWithTotalExpenses(_operationHash, totalExpenses);\n\n        emit runResult(_operationHash, _funcResult);\n    }\n\n    function sendRunFailure(string calldata _funcName, bytes32 _operationHash) external onlyOwner {\n      etherlessStorage.markHidden(_funcName);\n      etherlessStorage.cancelOperation(_operationHash);\n      emit runResult(_operationHash, \"the function you executed did not stop\");\n    }\n\n}",
  "sourcePath": "contracts/runContract.sol",
  "abi": [
    {
      "anonymous": false,
      "inputs": [
        {
          "indexed": true,
          "internalType": "address",
          "name": "previousOwner",
          "type": "address"
        },
        {
          "indexed": true,
          "internalType": "address",
          "name": "newOwner",
          "type": "address"
        }
      ],
      "name": "OwnershipTransferred",
      "type": "event"
    },
    {
      "anonymous": false,
      "inputs": [
        {
          "indexed": false,
          "internalType": "bytes32",
          "name": "operationHash",
          "type": "bytes32"
        },
        {
          "indexed": false,
          "internalType": "string",
          "name": "funcName",
          "type": "string"
        },
        {
          "indexed": false,
          "internalType": "string",
          "name": "funcParameters",
          "type": "string"
        }
      ],
      "name": "runRequest",
      "type": "event"
    },
    {
      "anonymous": false,
      "inputs": [
        {
          "indexed": false,
          "internalType": "bytes32",
          "name": "operationHash",
          "type": "bytes32"
        },
        {
          "indexed": false,
          "internalType": "string",
          "name": "funcResult",
          "type": "string"
        }
      ],
      "name": "runResult",
      "type": "event"
    },
    {
      "constant": true,
      "inputs": [
        {
          "internalType": "string",
          "name": "_funcName",
          "type": "string"
        }
      ],
      "name": "checkFuncPrice",
      "outputs": [
        {
          "internalType": "uint256",
          "name": "",
          "type": "uint256"
        }
      ],
      "payable": false,
      "stateMutability": "view",
      "type": "function"
    },
    {
      "constant": false,
      "inputs": [
        {
          "internalType": "address",
          "name": "_sender",
          "type": "address"
        }
      ],
      "name": "initialize",
      "outputs": [],
      "payable": false,
      "stateMutability": "nonpayable",
      "type": "function"
    },
    {
      "constant": true,
      "inputs": [],
      "name": "isOwner",
      "outputs": [
        {
          "internalType": "bool",
          "name": "",
          "type": "bool"
        }
      ],
      "payable": false,
      "stateMutability": "view",
      "type": "function"
    },
    {
      "constant": true,
      "inputs": [],
      "name": "owner",
      "outputs": [
        {
          "internalType": "address",
          "name": "",
          "type": "address"
        }
      ],
      "payable": false,
      "stateMutability": "view",
      "type": "function"
    },
    {
      "constant": false,
      "inputs": [],
      "name": "renounceOwnership",
      "outputs": [],
      "payable": false,
      "stateMutability": "nonpayable",
      "type": "function"
    },
    {
      "constant": false,
      "inputs": [
        {
          "internalType": "string",
          "name": "_funcName",
          "type": "string"
        },
        {
          "internalType": "bytes32",
          "name": "_operationHash",
          "type": "bytes32"
        }
      ],
      "name": "sendRunFailure",
      "outputs": [],
      "payable": false,
      "stateMutability": "nonpayable",
      "type": "function"
    },
    {
      "constant": false,
      "inputs": [
        {
          "internalType": "string",
          "name": "_funcName",
          "type": "string"
        },
        {
          "internalType": "string",
          "name": "_funcParameters",
          "type": "string"
        }
      ],
      "name": "sendRunRequest",
      "outputs": [
        {
          "internalType": "bytes32",
          "name": "",
          "type": "bytes32"
        }
      ],
      "payable": true,
      "stateMutability": "payable",
      "type": "function"
    },
    {
      "constant": false,
      "inputs": [
        {
          "internalType": "string",
          "name": "_funcResult",
          "type": "string"
        },
        {
          "internalType": "uint256",
          "name": "_executionPrice",
          "type": "uint256"
        },
        {
          "internalType": "uint256",
          "name": "_devFee",
          "type": "uint256"
        },
        {
          "internalType": "address payable",
          "name": "_devAddress",
          "type": "address"
        },
        {
          "internalType": "bytes32",
          "name": "_operationHash",
          "type": "bytes32"
        }
      ],
      "name": "sendRunResult",
      "outputs": [],
      "payable": false,
      "stateMutability": "nonpayable",
      "type": "function"
    },
    {
      "constant": false,
      "inputs": [
        {
          "internalType": "address",
          "name": "_storage",
          "type": "address"
        }
      ],
      "name": "setStorage",
      "outputs": [],
      "payable": false,
      "stateMutability": "nonpayable",
      "type": "function"
    },
    {
      "constant": false,
      "inputs": [
        {
          "internalType": "address",
          "name": "newOwner",
          "type": "address"
        }
      ],
      "name": "transferOwnership",
      "outputs": [],
      "payable": false,
      "stateMutability": "nonpayable",
      "type": "function"
    }
  ],
  "bytecode": "0x6080604052611a22806100136000396000f3fe6080604052600436106100915760003560e01c80639d5b0bd9116100595780639d5b0bd914610248578063c4d66de81461032a578063e931ad2a1461037b578063efaa9eed14610415578063f2fde38b146104a557610091565b80630d4f243b14610096578063715018a61461015a5780638da5cb5b146101715780638f32d59b146101c85780639137c1a7146101f7575b600080fd5b3480156100a257600080fd5b50610158600480360360a08110156100b957600080fd5b81019080803590602001906401000000008111156100d657600080fd5b8201836020820111156100e857600080fd5b8035906020019184600183028401116401000000008311171561010a57600080fd5b90919293919293908035906020019092919080359060200190929190803573ffffffffffffffffffffffffffffffffffffffff169060200190929190803590602001909291905050506104f6565b005b34801561016657600080fd5b5061016f610812565b005b34801561017d57600080fd5b5061018661094d565b604051808273ffffffffffffffffffffffffffffffffffffffff1673ffffffffffffffffffffffffffffffffffffffff16815260200191505060405180910390f35b3480156101d457600080fd5b506101dd610977565b604051808215151515815260200191505060405180910390f35b34801561020357600080fd5b506102466004803603602081101561021a57600080fd5b81019080803573ffffffffffffffffffffffffffffffffffffffff1690602001909291905050506109d6565b005b6103146004803603604081101561025e57600080fd5b810190808035906020019064010000000081111561027b57600080fd5b82018360208201111561028d57600080fd5b803590602001918460018302840111640100000000831117156102af57600080fd5b9091929391929390803590602001906401000000008111156102d057600080fd5b8201836020820111156102e257600080fd5b8035906020019184600183028401116401000000008311171561030457600080fd5b9091929391929390505050610a94565b6040518082815260200191505060405180910390f35b34801561033657600080fd5b506103796004803603602081101561034d57600080fd5b81019080803573ffffffffffffffffffffffffffffffffffffffff169060200190929190505050610f8a565b005b34801561038757600080fd5b506103ff6004803603602081101561039e57600080fd5b81019080803590602001906401000000008111156103bb57600080fd5b8201836020820111156103cd57600080fd5b803590602001918460018302840111640100000000831117156103ef57600080fd5b9091929391929390505050611093565b6040518082815260200191505060405180910390f35b34801561042157600080fd5b506104a36004803603604081101561043857600080fd5b810190808035906020019064010000000081111561045557600080fd5b82018360208201111561046757600080fd5b8035906020019184600183028401116401000000008311171561048957600080fd5b9091929391929390803590602001909291905050506112c3565b005b3480156104b157600080fd5b506104f4600480360360208110156104c857600080fd5b81019080803573ffffffffffffffffffffffffffffffffffffffff1690602001909291905050506114db565b005b6104fe610977565b610570576040517f08c379a00000000000000000000000000000000000000000000000000000000081526004018080602001828103825260208152602001807f4f776e61626c653a2063616c6c6572206973206e6f7420746865206f776e657281525060200191505060405180910390fd5b606660009054906101000a900473ffffffffffffffffffffffffffffffffffffffff1673ffffffffffffffffffffffffffffffffffffffff1663ada4ac7483856040518363ffffffff1660e01b8152600401808373ffffffffffffffffffffffffffffffffffffffff1673ffffffffffffffffffffffffffffffffffffffff16815260200182815260200192505050600060405180830381600087803b15801561061957600080fd5b505af115801561062d573d6000803e3d6000fd5b50505050606660009054906101000a900473ffffffffffffffffffffffffffffffffffffffff1673ffffffffffffffffffffffffffffffffffffffff1663ada4ac7433866040518363ffffffff1660e01b8152600401808373ffffffffffffffffffffffffffffffffffffffff1673ffffffffffffffffffffffffffffffffffffffff16815260200182815260200192505050600060405180830381600087803b1580156106da57600080fd5b505af11580156106ee573d6000803e3d6000fd5b505050506000610707858561156190919063ffffffff16565b9050606660009054906101000a900473ffffffffffffffffffffffffffffffffffffffff1673ffffffffffffffffffffffffffffffffffffffff1663046b0ddc83836040518363ffffffff1660e01b81526004018083815260200182815260200192505050600060405180830381600087803b15801561078657600080fd5b505af115801561079a573d6000803e3d6000fd5b505050507fb50812b7210dd4ac790ef470fc37bac54713976a1f1c870f77d3dc98a46bf63482888860405180848152602001806020018281038252848482818152602001925080828437600081840152601f19601f82011690508083019250505094505050505060405180910390a150505050505050565b61081a610977565b61088c576040517f08c379a00000000000000000000000000000000000000000000000000000000081526004018080602001828103825260208152602001807f4f776e61626c653a2063616c6c6572206973206e6f7420746865206f776e657281525060200191505060405180910390fd5b600073ffffffffffffffffffffffffffffffffffffffff16603360009054906101000a900473ffffffffffffffffffffffffffffffffffffffff1673ffffffffffffffffffffffffffffffffffffffff167f8be0079c531659141344cd1fd0a4f28419497f9722a3daafe3b4186f6b6457e060405160405180910390a36000603360006101000a81548173ffffffffffffffffffffffffffffffffffffffff021916908373ffffffffffffffffffffffffffffffffffffffff160217905550565b6000603360009054906101000a900473ffffffffffffffffffffffffffffffffffffffff16905090565b6000603360009054906101000a900473ffffffffffffffffffffffffffffffffffffffff1673ffffffffffffffffffffffffffffffffffffffff166109ba6115e9565b73ffffffffffffffffffffffffffffffffffffffff1614905090565b6109de610977565b610a50576040517f08c379a00000000000000000000000000000000000000000000000000000000081526004018080602001828103825260208152602001807f4f776e61626c653a2063616c6c6572206973206e6f7420746865206f776e657281525060200191505060405180910390fd5b80606660006101000a81548173ffffffffffffffffffffffffffffffffffffffff021916908373ffffffffffffffffffffffffffffffffffffffff16021790555050565b6000606660009054906101000a900473ffffffffffffffffffffffffffffffffffffffff1673ffffffffffffffffffffffffffffffffffffffff1663ade6210986866040518363ffffffff1660e01b815260040180806020018281038252848482818152602001925080828437600081840152601f19601f820116905080830192505050935050505060206040518083038186803b158015610b3557600080fd5b505afa158015610b49573d6000803e3d6000fd5b505050506040513d6020811015610b5f57600080fd5b8101908080519060200190929190505050610bc5576040517f08c379a000000000000000000000000000000000000000000000000000000000815260040180806020018281038252602a8152602001806119c4602a913960400191505060405180910390fd5b606660009054906101000a900473ffffffffffffffffffffffffffffffffffffffff1673ffffffffffffffffffffffffffffffffffffffff1663d2d06d6286866040518363ffffffff1660e01b815260040180806020018281038252848482818152602001925080828437600081840152601f19601f820116905080830192505050935050505060206040518083038186803b158015610c6457600080fd5b505afa158015610c78573d6000803e3d6000fd5b505050506040513d6020811015610c8e57600080fd5b81019080805190602001909291905050503414610cf6576040517f08c379a000000000000000000000000000000000000000000000000000000000815260040180806020018281038252603d81526020018061190d603d913960400191505060405180910390fd5b6000606660009054906101000a900473ffffffffffffffffffffffffffffffffffffffff1673ffffffffffffffffffffffffffffffffffffffff16639fde5cfc3388886040518463ffffffff1660e01b8152600401808461ffff1661ffff1681526020018060200180602001838103835260038152602001807f72756e00000000000000000000000000000000000000000000000000000000008152506020018381038252858582818152602001925080828437600081840152601f19601f8201169050808301925050509550505050505060206040518083038186803b158015610de057600080fd5b505afa158015610df4573d6000803e3d6000fd5b505050506040513d6020811015610e0a57600080fd5b81019080805190602001909291905050509050606660009054906101000a900473ffffffffffffffffffffffffffffffffffffffff1673ffffffffffffffffffffffffffffffffffffffff1663c3742a803433846040518463ffffffff1660e01b8152600401808373ffffffffffffffffffffffffffffffffffffffff1673ffffffffffffffffffffffffffffffffffffffff168152602001828152602001925050506000604051808303818588803b158015610ec657600080fd5b505af1158015610eda573d6000803e3d6000fd5b50505050507fc453119b9b6aa6ac561d5cd1de11e333fd5c4bb9433b948833757a964cf19bad81878787876040518086815260200180602001806020018381038352878782818152602001925080828437600081840152601f19601f8201169050808301925050508381038252858582818152602001925080828437600081840152601f19601f82011690508083019250505097505050505050505060405180910390a180915050949350505050565b600060019054906101000a900460ff1680610fa95750610fa86115f1565b5b80610fc057506000809054906101000a900460ff16155b611015576040517f08c379a000000000000000000000000000000000000000000000000000000000815260040180806020018281038252602e815260200180611970602e913960400191505060405180910390fd5b60008060019054906101000a900460ff161590508015611065576001600060016101000a81548160ff02191690831515021790555060016000806101000a81548160ff0219169083151502179055505b61106e82611608565b801561108f5760008060016101000a81548160ff0219169083151502179055505b5050565b6000606660009054906101000a900473ffffffffffffffffffffffffffffffffffffffff1673ffffffffffffffffffffffffffffffffffffffff1663ade6210984846040518363ffffffff1660e01b815260040180806020018281038252848482818152602001925080828437600081840152601f19601f820116905080830192505050935050505060206040518083038186803b15801561113457600080fd5b505afa158015611148573d6000803e3d6000fd5b505050506040513d602081101561115e57600080fd5b81019080805190602001909291905050506111e1576040517f08c379a000000000000000000000000000000000000000000000000000000000815260040180806020018281038252601d8152602001807f7468652066756e6374696f6e206973206e6f7420617661696c61626c6500000081525060200191505060405180910390fd5b606660009054906101000a900473ffffffffffffffffffffffffffffffffffffffff1673ffffffffffffffffffffffffffffffffffffffff1663d2d06d6284846040518363ffffffff1660e01b815260040180806020018281038252848482818152602001925080828437600081840152601f19601f820116905080830192505050935050505060206040518083038186803b15801561128057600080fd5b505afa158015611294573d6000803e3d6000fd5b505050506040513d60208110156112aa57600080fd5b8101908080519060200190929190505050905092915050565b6112cb610977565b61133d576040517f08c379a00000000000000000000000000000000000000000000000000000000081526004018080602001828103825260208152602001807f4f776e61626c653a2063616c6c6572206973206e6f7420746865206f776e657281525060200191505060405180910390fd5b606660009054906101000a900473ffffffffffffffffffffffffffffffffffffffff1673ffffffffffffffffffffffffffffffffffffffff16631d978ebf84846040518363ffffffff1660e01b815260040180806020018281038252848482818152602001925080828437600081840152601f19601f8201169050808301925050509350505050600060405180830381600087803b1580156113de57600080fd5b505af11580156113f2573d6000803e3d6000fd5b50505050606660009054906101000a900473ffffffffffffffffffffffffffffffffffffffff1673ffffffffffffffffffffffffffffffffffffffff1663beadf957826040518263ffffffff1660e01b815260040180828152602001915050600060405180830381600087803b15801561146b57600080fd5b505af115801561147f573d6000803e3d6000fd5b505050507fb50812b7210dd4ac790ef470fc37bac54713976a1f1c870f77d3dc98a46bf6348160405180828152602001806020018281038252602681526020018061199e602691396040019250505060405180910390a1505050565b6114e3610977565b611555576040517f08c379a00000000000000000000000000000000000000000000000000000000081526004018080602001828103825260208152602001807f4f776e61626c653a2063616c6c6572206973206e6f7420746865206f776e657281525060200191505060405180910390fd5b61155e816117c6565b50565b6000808284019050838110156115df576040517f08c379a000000000000000000000000000000000000000000000000000000000815260040180806020018281038252601b8152602001807f536166654d6174683a206164646974696f6e206f766572666c6f77000000000081525060200191505060405180910390fd5b8091505092915050565b600033905090565b6000803090506000813b9050600081149250505090565b600060019054906101000a900460ff168061162757506116266115f1565b5b8061163e57506000809054906101000a900460ff16155b611693576040517f08c379a000000000000000000000000000000000000000000000000000000000815260040180806020018281038252602e815260200180611970602e913960400191505060405180910390fd5b60008060019054906101000a900460ff1615905080156116e3576001600060016101000a81548160ff02191690831515021790555060016000806101000a81548160ff0219169083151502179055505b81603360006101000a81548173ffffffffffffffffffffffffffffffffffffffff021916908373ffffffffffffffffffffffffffffffffffffffff160217905550603360009054906101000a900473ffffffffffffffffffffffffffffffffffffffff1673ffffffffffffffffffffffffffffffffffffffff16600073ffffffffffffffffffffffffffffffffffffffff167f8be0079c531659141344cd1fd0a4f28419497f9722a3daafe3b4186f6b6457e060405160405180910390a380156117c25760008060016101000a81548160ff0219169083151502179055505b5050565b600073ffffffffffffffffffffffffffffffffffffffff168173ffffffffffffffffffffffffffffffffffffffff16141561184c576040517f08c379a000000000000000000000000000000000000000000000000000000000815260040180806020018281038252602681526020018061194a6026913960400191505060405180910390fd5b8073ffffffffffffffffffffffffffffffffffffffff16603360009054906101000a900473ffffffffffffffffffffffffffffffffffffffff1673ffffffffffffffffffffffffffffffffffffffff167f8be0079c531659141344cd1fd0a4f28419497f9722a3daafe3b4186f6b6457e060405160405180910390a380603360006101000a81548173ffffffffffffffffffffffffffffffffffffffff021916908373ffffffffffffffffffffffffffffffffffffffff1602179055505056fe5468652076616c756520284554482920796f752073656e7420697320696e617070726f70726961746520746f2072756e207468652066756e6374696f6e4f776e61626c653a206e6577206f776e657220697320746865207a65726f2061646472657373436f6e747261637420696e7374616e63652068617320616c7265616479206265656e20696e697469616c697a65647468652066756e6374696f6e20796f7520657865637574656420646964206e6f742073746f707468652066756e6374696f6e20796f7520726571756573746564206973206e6f74206176616961626c65a265627a7a723158206c2eebd81fecae7be67f947b4daa1fca61843fafd9416e8bde620a15616810a264736f6c63430005100032",
  "compiler": {
    "name": "solc",
    "version": "0.5.16+commit.9c3226ce.Emscripten.clang",
    "optimizer": {
      "enabled": false,
      "runs": 200
    },
    "evmVersion": "petersburg"
  }
}